:100000000C945B000C9483000C9483000C9483008C
:100010000C9483000C9483000C9483000C94830054
:100020000C9483000C9483000C9483000C94830044
:100030000C9483000C9483000C9483000C94830034
:100040000C94F5020C9483000C9483000C948300B0
:100050000C9483000C9483000C9483000C94830014
:100060000C9483000C948300000024272A000025B0
:10007000282B000023262904040404040404040299
:100080000202020202030303030303010204081035
:100090002040800102040810200102040810200002
:1000A0000000070002010000030406000000000039
:1000B00000000000960211241FBECFEFD4E0DEBF87
:1000C000CDBF11E0A0E0B1E0E2E0F9E002C00590B0
:1000D0000D92AA33B107D9F711E0AAE3B1E001C04C
:1000E0001D92AF33B107E1F710E0C6EBD0E004C0DA
:1000F0002297FE010E947C04C43BD107C9F70E94ED
:10010000EE020C9480040C94000070931101609333
:100110001001161617063CF081E090E09093110153
:100120008093100108956530710534F084E090E00B
:1001300090931101809310010895709311016093C1
:100140001001161617063CF081E090E09093110123
:100150008093100108956530710534F084E090E0DB
:100160009093110180931001089560E08091060141
:100170000E940D0481E090E00E94540361E08091B0
:1001800006010E940D0481E090E00E94540360E0AB
:10019000809106010E940D0461E070E080E090E033
:1001A0000E9432030895EF92FF920F931F93CF9313
:1001B000DF937C018B010F701070C0910801D0910A
:1001C000090108C0602F61708C2F0E940D041595E5
:1001D0000795219680910E0190910F018C179D0734
:1001E0008CF7C7010E94B500DF91CF911F910F914D
:1001F000FF90EF9008950F931F93CF93DF938C019F
:10020000EB0160E0809102010E940D0480910001E9
:1002100090910101892B29F060E0809104010E94F6
:100220000D04BE01C8010E94D300DF91CF911F9140
:100230000F910895EF92FF920F931F937C018B0112
:1002400094E0759567959A95E1F7C7010E94D300F0
:100250000F701070B801C7010E94D3001F910F9159
:10026000FF90EF9008950F931F93CF93DF938C012E
:10027000EB0161E0809102010E940D048091000178
:1002800090910101892B29F060E0809104010E9486
:100290000D04BE01C8010E941A01DF91CF911F9188
:1002A0000F910895EF92FF920F931F93CF93DF93D7
:1002B0007C01EB0100E010E009C0AC0FBD1F6C91A8
:1002C000772767FD7095C7010E943301A02FBB27D8
:1002D0000F5F1F4FFE0101900020E9F73197EC1BE3
:1002E000FD0BAE17BF0748F3DF91CF911F910F9120
:1002F000FF90EF9008950F931F93CF93DF938C019E
:10030000EB0160E0809102010E940D0480910001E8
:1003100090910101892B29F060E0809104010E94F5
:100320000D04BE01C8010E941A01DF91CF911F91F7
:100330000F910895CF92DF92EF92FF920F931F9348
:10034000CF93DF936C017B018A01C0E0D0E00DC048
:1003500068E170E0C6010E947B01B801882777FD43
:100360008095982F0E9432032196CE15DF0584F3E5
:10037000DF91CF911F910F91FF90EF90DF90CF9081
:100380000895EF92FF920F931F93CF93DF937C0119
:10039000EB018A0162E070E00E947B01B801043148
:1003A000110514F063E170E0C330D10541F0C430B1
:1003B000D10541F0229741F4605C7F4F05C06C5E2F
:1003C0007F4F02C06C5A7F4F60587F4FC7010E9419
:1003D0007B01DF91CF911F910F91FF90EF900895D6
:1003E000CF93DF93EC0161E0809106010E94A303AB
:1003F00061E0809102010E94A3038091000190912D
:100400000101892B29F061E0809104010E94A3037E
:1004100061E0809108010E94A30361E080910A01DC
:100420000E94A30361E080910C010E94A30361E09C
:1004300080910E010E94A30362E370E080E090E0EF
:100440000E94320363E070E0CE010E94FB0065E091
:1004500070E080E090E00E94320363E070E0CE0143
:100460000E94FB0084E690E00E94540363E070E089
:10047000CE010E94FB0065E070E080E090E00E9409
:10048000320362E070E0CE010E94FB0062E070E0A7
:10049000CE010E94FB00609110017091110161502A
:1004A000704023E0660F771F2A95E1F7CE010E9486
:1004B000FB008CE390E00E9454036CE070E0CE01FE
:1004C0000E947B018CE390E00E94540361E070E0A5
:1004D000CE010E947B0163E070E080E090E00E942A
:1004E000320366E070E0CE010E947B0161E070E0C3
:1004F00080E090E00E943203DF91CF91089561E0A7
:1005000070E00E947B0161E070E080E090E00E947A
:1005100032030895019749F46F5F7F4F31F464E02F
:1005200070E08AE391E00E949D0008956FEF7FEFF5
:1005300081E090E00E948A0208950F931F9361E08A
:100540008DE00E940D040AE311E0C8010E947F02C1
:1005500040E050E061E070E0C8010E94C10162E14A
:1005600071E0C8010E94520140E050E062E070E09A
:10057000C8010E94C10164E271E0C8010E945201F9
:1005800040E050E063E070E0C8010E94C1016BE20E
:1005900071E0C8010E94520140E050E064E070E068
:1005A000C8010E94C10162E371E0C8010E945201CA
:1005B00068EE73E080E090E00E94320360E08DE03E
:1005C0000E940D041F910F91089561E08DE00E943B
:1005D000A3038AE391E00E94F00108950E94610361
:1005E0000E94E5020E949D02FDCF1F920F920FB65E
:1005F0000F9211248F939F93AF93BF9380913B01F0
:1006000090913C01A0913D01B0913E010196A11D48
:10061000B11D80933B0190933C01A0933D01B093A9
:100620003E01BF91AF919F918F910F900FBE0F90A0
:100630001F90189560913B0170913C0180913D01A4
:1006400090913E0127E0660F771F881F991F2A951A
:10065000D1F72DE730E040E050E00E945804CA0195
:10066000B9010895AF92BF92CF92DF92EF92FF92BD
:100670000F931F935B016C010E941A037B018C0195
:100680000E941A036E197F09800B910B6A157B0576
:100690008C059D05A8F31F910F91FF90EF90DF90BF
:1006A000CF90BF90AF900895019751F0880F991F98
:1006B000880F991F02972FB7F8940197F1F72FBF72
:1006C0000895789410923B0110923C0110923D01E4
:1006D00010923E0184B5826084BD84B5816084BD82
:1006E00085B5826085BD85B5816085BDEEE6F0E0AB
:1006F000808181608083E1E8F0E080818260808396
:10070000808181608083E0E8F0E080818160808387
:10071000E1EBF0E0808184608083E0EBF0E08081B9
:1007200081608083EAE7F0E080818460808380815B
:100730008260808380818160808380818068808303
:100740001092C1000895282F3327C90185579F4F64
:10075000FC01949129583F4FF9018491882381F03D
:10076000E82FFF27E859FF4FE491FF27662329F47C
:10077000808190958923808308958081892B80834F
:100780000895482F5527CA0181569F4FFC01249197
:10079000CA0185579F4FFC01949149585F4FFA0158
:1007A0003491332319F480E090E00895222331F14D
:1007B000233021F4809180008F7705C0243031F4FC
:1007C000809180008F7D8093800018C0213019F4C3
:1007D00084B58F7704C0223021F484B58F7D84BD29
:1007E0000DC0263021F48091B0008F7705C02730EE
:1007F00029F48091B0008F7D8093B000E32FFF2714
:10080000EE58FF4FE491FF27808120E030E08923FC
:1008100011F021E030E0C9010895482F5527CA01A1
:1008200081569F4FFC012491CA0185579F4FFC01BF
:10083000949149585F4FFA0134913323C1F1222337
:1008400031F1233021F4809180008F7705C024306E
:1008500031F4809180008F7D8093800018C021301A
:1008600019F484B58F7704C0223021F484B58F7DCC
:1008700084BD0DC0263021F48091B0008F7705C073
:10088000273029F48091B0008F7D8093B000E32F52
:10089000FF27E359FF4FE491FF27662329F4808166
:1008A00090958923808308958081892B8083089582
:1008B000A1E21A2EAA1BBB1BFD010DC0AA1FBB1F64
:1008C000EE1FFF1FA217B307E407F50720F0A21BD6
:1008D000B30BE40BF50B661F771F881F991F1A9443
:1008E00069F760957095809590959B01AC01BD016D
:1008F000CF010895EE0FFF1F0590F491E02D0994AC
:02090000FFCF27
:10090200010003000B0002000400050006000700BE
:100912000200525820696E707574206465746563B4
:10092200746564004C696E652032004C696E652006
:0A09320033004C696E6520340000AC
:00000001FF
